{
  "_format": "hh-sol-artifact-1",
  "contractName": "SpotGuard",
  "sourceName": "contracts/SpotGuard.sol",
  "abi": [
    {
      "inputs": [],
      "stateMutability": "nonpayable",
      "type": "constructor"
    },
    {
      "anonymous": false,
      "inputs": [
        {
          "indexed": true,
          "internalType": "address",
          "name": "_address",
          "type": "address"
        }
      ],
      "name": "AddedToBlacklist",
      "type": "event"
    },
    {
      "anonymous": false,
      "inputs": [
        {
          "indexed": true,
          "internalType": "address",
          "name": "_address",
          "type": "address"
        }
      ],
      "name": "AddedToWhitelist",
      "type": "event"
    },
    {
      "anonymous": false,
      "inputs": [
        {
          "indexed": true,
          "internalType": "address",
          "name": "_address",
          "type": "address"
        }
      ],
      "name": "RemovedFromBlacklist",
      "type": "event"
    },
    {
      "anonymous": false,
      "inputs": [
        {
          "indexed": true,
          "internalType": "address",
          "name": "_address",
          "type": "address"
        }
      ],
      "name": "RemovedFromWhitelist",
      "type": "event"
    },
    {
      "stateMutability": "nonpayable",
      "type": "fallback"
    },
    {
      "inputs": [
        {
          "internalType": "address[]",
          "name": "_addresses",
          "type": "address[]"
        }
      ],
      "name": "addToBlacklist",
      "outputs": [],
      "stateMutability": "nonpayable",
      "type": "function"
    },
    {
      "inputs": [
        {
          "internalType": "address[]",
          "name": "_addresses",
          "type": "address[]"
        }
      ],
      "name": "addToWhitelist",
      "outputs": [],
      "stateMutability": "nonpayable",
      "type": "function"
    },
    {
      "inputs": [
        {
          "internalType": "address",
          "name": "",
          "type": "address"
        }
      ],
      "name": "blacklist",
      "outputs": [
        {
          "internalType": "bool",
          "name": "",
          "type": "bool"
        }
      ],
      "stateMutability": "view",
      "type": "function"
    },
    {
      "inputs": [
        {
          "internalType": "bytes32",
          "name": "txHash",
          "type": "bytes32"
        },
        {
          "internalType": "bool",
          "name": "success",
          "type": "bool"
        }
      ],
      "name": "checkAfterExecution",
      "outputs": [],
      "stateMutability": "view",
      "type": "function"
    },
    {
      "inputs": [
        {
          "internalType": "address",
          "name": "to",
          "type": "address"
        },
        {
          "internalType": "uint256",
          "name": "",
          "type": "uint256"
        },
        {
          "internalType": "bytes",
          "name": "",
          "type": "bytes"
        },
        {
          "internalType": "enum Enum.Operation",
          "name": "",
          "type": "uint8"
        },
        {
          "internalType": "uint256",
          "name": "",
          "type": "uint256"
        },
        {
          "internalType": "uint256",
          "name": "",
          "type": "uint256"
        },
        {
          "internalType": "uint256",
          "name": "",
          "type": "uint256"
        },
        {
          "internalType": "address",
          "name": "",
          "type": "address"
        },
        {
          "internalType": "address payable",
          "name": "",
          "type": "address"
        },
        {
          "internalType": "bytes",
          "name": "",
          "type": "bytes"
        },
        {
          "internalType": "address",
          "name": "",
          "type": "address"
        }
      ],
      "name": "checkTransaction",
      "outputs": [],
      "stateMutability": "view",
      "type": "function"
    },
    {
      "inputs": [
        {
          "internalType": "address",
          "name": "_address",
          "type": "address"
        }
      ],
      "name": "isBlacklisted",
      "outputs": [
        {
          "internalType": "bool",
          "name": "",
          "type": "bool"
        }
      ],
      "stateMutability": "view",
      "type": "function"
    },
    {
      "inputs": [
        {
          "internalType": "address",
          "name": "_address",
          "type": "address"
        }
      ],
      "name": "isWhitelisted",
      "outputs": [
        {
          "internalType": "bool",
          "name": "",
          "type": "bool"
        }
      ],
      "stateMutability": "view",
      "type": "function"
    },
    {
      "inputs": [],
      "name": "owner",
      "outputs": [
        {
          "internalType": "address",
          "name": "",
          "type": "address"
        }
      ],
      "stateMutability": "view",
      "type": "function"
    },
    {
      "inputs": [
        {
          "internalType": "address[]",
          "name": "_addresses",
          "type": "address[]"
        }
      ],
      "name": "removeFromBlacklist",
      "outputs": [],
      "stateMutability": "nonpayable",
      "type": "function"
    },
    {
      "inputs": [
        {
          "internalType": "address[]",
          "name": "_addresses",
          "type": "address[]"
        }
      ],
      "name": "removeFromWhitelist",
      "outputs": [],
      "stateMutability": "nonpayable",
      "type": "function"
    },
    {
      "inputs": [
        {
          "internalType": "bytes4",
          "name": "interfaceId",
          "type": "bytes4"
        }
      ],
      "name": "supportsInterface",
      "outputs": [
        {
          "internalType": "bool",
          "name": "",
          "type": "bool"
        }
      ],
      "stateMutability": "view",
      "type": "function"
    },
    {
      "inputs": [
        {
          "internalType": "address",
          "name": "",
          "type": "address"
        }
      ],
      "name": "whitelist",
      "outputs": [
        {
          "internalType": "bool",
          "name": "",
          "type": "bool"
        }
      ],
      "stateMutability": "view",
      "type": "function"
    }
  ],
  "bytecode": "0x608060405234801561001057600080fd5b50600280546001600160a01b03191633179055610afa806100326000396000f3fe608060405234801561001057600080fd5b50600436106100b15760003560e01c80638da5cb5b1161006e5780638da5cb5b14610153578063932713681461017e578063935eb35f146101905780639b19251a146101a3578063f9f92be4146101c6578063fe575a87146101e957005b806301ffc9a7146100b35780633af32abf146100db578063548db1741461010757806375f0bb521461011a5780637f6497831461012d57806389daf79914610140575b005b6100c66100c136600461073d565b610215565b60405190151581526020015b60405180910390f35b6100c66100e9366004610796565b6001600160a01b031660009081526020819052604090205460ff1690565b6100b16101153660046107fa565b61024c565b6100b161012836600461092b565b610306565b6100b161013b3660046107fa565b61041b565b6100b161014e3660046107fa565b610552565b600254610166906001600160a01b031681565b6040516001600160a01b0390911681526020016100d2565b6100b161018c366004610a10565b5050565b6100b161019e3660046107fa565b610604565b6100c66101b1366004610796565b60006020819052908152604090205460ff1681565b6100c66101d4366004610796565b60016020526000908152604090205460ff1681565b6100c66101f7366004610796565b6001600160a01b031660009081526001602052604090205460ff1690565b60006001600160e01b0319821663736bd41d60e11b148061024657506001600160e01b031982166301ffc9a760e01b145b92915050565b6002546001600160a01b0316331461027f5760405162461bcd60e51b815260040161027690610a45565b60405180910390fd5b60005b815181101561018c57600082828151811061029f5761029f610a87565b6020908102919091018101516001600160a01b0381166000818152928390526040808420805460ff1916905551919350917fcdd2e9b91a56913d370075169cefa1602ba36be5301664f752192bb1709df75791a250806102fe81610a9d565b915050610282565b6001600160a01b038b1660009081526020819052604090205460ff1661038d5760405162461bcd60e51b815260206004820152603660248201527f57686974656c69737447756172643a2044657374696e6174696f6e2061646472604482015275195cdcc81a5cc81b9bdd081dda1a5d195b1a5cdd195960521b6064820152608401610276565b6001600160a01b038b1660009081526001602052604090205460ff161561040e5760405162461bcd60e51b815260206004820152602f60248201527f5472616e73616374696f6e20626c6f636b65643a20746f20616464726573732060448201526e34b990313630b1b5b634b9ba32b21760891b6064820152608401610276565b5050505050505050505050565b6002546001600160a01b031633146104455760405162461bcd60e51b815260040161027690610a45565b60005b815181101561018c57600082828151811061046557610465610a87565b6020908102919091018101516001600160a01b0381166000908152600190925260409091205490915060ff16156104f65760405162461bcd60e51b815260206004820152602f60248201527f4164647265737320697320696e20626c61636b6c6973742c2063616e6e6f742060448201526e3132903bb434ba32b634b9ba32b21760891b6064820152608401610276565b6001600160a01b038116600081815260208190526040808220805460ff19166001179055517fa850ae9193f515cbae8d35e8925bd2be26627fc91bce650b8652ed254e9cab039190a2508061054a81610a9d565b915050610448565b6002546001600160a01b0316331461057c5760405162461bcd60e51b815260040161027690610a45565b60005b815181101561018c57600082828151811061059c5761059c610a87565b6020908102919091018101516001600160a01b038116600081815260019093526040808420805460ff1916905551919350917f2b6bf71b58b3583add364b3d9060ebf8019650f65f5be35f5464b9cb3e4ba2d491a250806105fc81610a9d565b91505061057f565b6002546001600160a01b0316331461062e5760405162461bcd60e51b815260040161027690610a45565b60005b815181101561018c57600082828151811061064e5761064e610a87565b6020908102919091018101516001600160a01b03811660009081529182905260409091205490915060ff16156106de5760405162461bcd60e51b815260206004820152602f60248201527f4164647265737320697320696e2077686974656c6973742c2063616e6e6f742060448201526e313290313630b1b5b634b9ba32b21760891b6064820152608401610276565b6001600160a01b0381166000818152600160208190526040808320805460ff1916909217909155517ff9b68063b051b82957fa193585681240904fed808db8b30fc5a2d2202c6ed6279190a2508061073581610a9d565b915050610631565b60006020828403121561074f57600080fd5b81356001600160e01b03198116811461076757600080fd5b9392505050565b6001600160a01b038116811461078357600080fd5b50565b80356107918161076e565b919050565b6000602082840312156107a857600080fd5b81356107678161076e565b634e487b7160e01b600052604160045260246000fd5b604051601f8201601f1916810167ffffffffffffffff811182821017156107f2576107f26107b3565b604052919050565b6000602080838503121561080d57600080fd5b823567ffffffffffffffff8082111561082557600080fd5b818501915085601f83011261083957600080fd5b81358181111561084b5761084b6107b3565b8060051b915061085c8483016107c9565b818152918301840191848101908884111561087657600080fd5b938501935b838510156108a057843592506108908361076e565b828252938501939085019061087b565b98975050505050505050565b600082601f8301126108bd57600080fd5b813567ffffffffffffffff8111156108d7576108d76107b3565b6108ea601f8201601f19166020016107c9565b8181528460208386010111156108ff57600080fd5b816020850160208301376000918101602001919091529392505050565b80356002811061079157600080fd5b60008060008060008060008060008060006101608c8e03121561094d57600080fd5b6109568c610786565b9a5060208c0135995067ffffffffffffffff8060408e0135111561097957600080fd5b6109898e60408f01358f016108ac565b995061099760608e0161091c565b985060808d0135975060a08d0135965060c08d013595506109ba60e08e01610786565b94506109c96101008e01610786565b9350806101208e013511156109dd57600080fd5b506109ef8d6101208e01358e016108ac565b91506109fe6101408d01610786565b90509295989b509295989b9093969950565b60008060408385031215610a2357600080fd5b8235915060208301358015158114610a3a57600080fd5b809150509250929050565b60208082526022908201527f4f6e6c79206f776e65722063616e20706572666f726d2074686973206163746960408201526137b760f11b606082015260800190565b634e487b7160e01b600052603260045260246000fd5b600060018201610abd57634e487b7160e01b600052601160045260246000fd5b506001019056fea2646970667358221220b4ec5e3279c964917a3f63c983d1aa10cedf55a045b1020db9851ab0836a9af864736f6c63430008140033",
  "linkReferences": {},
  "deployedLinkReferences": {}
}